{
  "transactions": [
    {
      "hash": "0xefc2476be166baa84269cd770bb78e4fa163186f4f021f036781e72845be7c3f",
      "transactionType": "CREATE",
      "contractName": null,
      "contractAddress": "0xa3a777A65E447FCc962494F6C64149ACCdad3932",
      "function": null,
      "arguments": null,
      "transaction": {
        "type": "0x02",
        "from": "0x1733c691f9fce28141476f2d1121ba11a7a3b61b",
        "gas": "0x192f4",
        "value": "0x0",
        "data": "0x6080604052348015600f57600080fd5b50607880601d6000396000f3fe6080604052348015600f57600080fd5b506004361060285760003560e01c806325f7b1de14602d575b600080fd5b60001960405190815260200160405180910390f3fea2646970667358221220b92066b49f440c98ef0626a9ec69a7cb7360986ab44b9aff1e8da035462d5b1b64736f6c63430008110033",
        "nonce": "0x19",
        "accessList": []
      },
      "additionalContracts": [],
      "isFixedGasLimit": false
    },
    {
      "hash": "0x7c7ce68384b4343cc7b7bdcfff469e625e73e793bd5fd20e068e7ab4f13ba97d",
      "transactionType": "CALL",
      "contractName": null,
      "contractAddress": "0x1F5fb02591780aD0bafA6fa3c9e1028e8C57AC10",
      "function": "openValve(address)",
      "arguments": [
        "0xa3a777A65E447FCc962494F6C64149ACCdad3932"
      ],
      "transaction": {
        "type": "0x02",
        "from": "0x1733c691f9fce28141476f2d1121ba11a7a3b61b",
        "to": "0x1f5fb02591780ad0bafa6fa3c9e1028e8c57ac10",
        "gas": "0x10176",
        "value": "0x0",
        "data": "0x84dea8ea000000000000000000000000a3a777a65e447fcc962494f6c64149accdad3932",
        "nonce": "0x1a",
        "accessList": []
      },
      "additionalContracts": [],
      "isFixedGasLimit": false
    }
  ],
  "receipts": [
    {
      "transactionHash": "0xefc2476be166baa84269cd770bb78e4fa163186f4f021f036781e72845be7c3f",
      "transactionIndex": "0xb",
      "blockHash": "0xb25d610664bbd214513b75765ba5a8bda99343b568fd560fcb7590763a520434",
      "blockNumber": "0xa28b35",
      "from": "0x1733C691f9FCe28141476f2D1121ba11a7A3b61B",
      "to": null,
      "cumulativeGasUsed": "0x6e869",
      "gasUsed": "0x13601",
      "contractAddress": "0xa3a777A65E447FCc962494F6C64149ACCdad3932",
      "logs": [],
      "status": "0x1",
      "logsBloom": "0x00000000000000000000000000000000000000000000000000000000000000000000000000000000000000000000000000000000000000000000000000000000000000000000000000000000000000000000000000000000000000000000000000000000000000000000000000000000000000000000000000000000000000000000000000000000000000000000000000000000000000000000000000000000000000000000000000000000000000000000000000000000000000000000000000000000000000000000000000000000000000000000000000000000000000000000000000000000000000000000000000000000000000000000000000000000",
      "type": "0x2",
      "effectiveGasPrice": "0xb2d05e08"
    },
    {
      "transactionHash": "0x7c7ce68384b4343cc7b7bdcfff469e625e73e793bd5fd20e068e7ab4f13ba97d",
      "transactionIndex": "0xc",
      "blockHash": "0xb25d610664bbd214513b75765ba5a8bda99343b568fd560fcb7590763a520434",
      "blockNumber": "0xa28b35",
      "from": "0x1733C691f9FCe28141476f2D1121ba11a7A3b61B",
      "to": "0x1F5fb02591780aD0bafA6fa3c9e1028e8C57AC10",
      "cumulativeGasUsed": "0x7a2cf",
      "gasUsed": "0xba66",
      "contractAddress": null,
      "logs": [],
      "status": "0x1",
      "logsBloom": "0x00000000000000000000000000000000000000000000000000000000000000000000000000000000000000000000000000000000000000000000000000000000000000000000000000000000000000000000000000000000000000000000000000000000000000000000000000000000000000000000000000000000000000000000000000000000000000000000000000000000000000000000000000000000000000000000000000000000000000000000000000000000000000000000000000000000000000000000000000000000000000000000000000000000000000000000000000000000000000000000000000000000000000000000000000000000",
      "type": "0x2",
      "effectiveGasPrice": "0xb2d05e08"
    }
  ],
  "libraries": [],
  "pending": [],
  "returns": {},
  "timestamp": 1709920769,
  "chain": 5,
  "multi": false,
  "commit": "58b79d4"
}