{
  "transactions": [
    {
      "hash": "0x140666b3342c855e2476a3484c72d331c2feff4c6ee1eb5b2aade94e7ae98ec6",
      "transactionType": "CALL",
      "contractName": null,
      "contractAddress": "0x090fDc18c1c143f5C4E5573bECaD5261B5Ce46aE",
      "function": "approve(address,uint256)",
      "arguments": [
        "0xc9672e0DD32237Db0770fcbD3635693583bE4c4f",
        "10"
      ],
      "transaction": {
        "type": "0x02",
        "from": "0x1733c691f9fce28141476f2d1121ba11a7a3b61b",
        "to": "0x090fdc18c1c143f5c4e5573becad5261b5ce46ae",
        "gas": "0xf8b3",
        "value": "0x0",
        "data": "0x095ea7b3000000000000000000000000c9672e0dd32237db0770fcbd3635693583be4c4f000000000000000000000000000000000000000000000000000000000000000a",
        "nonce": "0xc",
        "accessList": []
      },
      "additionalContracts": [],
      "isFixedGasLimit": false
    },
    {
      "hash": "0xa57b165665b7afaf86d68e62d06c929c0a1aa58f096e937b2dfa090568961533",
      "transactionType": "CALL",
      "contractName": null,
      "contractAddress": "0xc9672e0DD32237Db0770fcbD3635693583bE4c4f",
      "function": "buyUsingOracle((uint256,uint256),(uint8,bytes32,bytes32))",
      "arguments": [
        "(10651821, 1)",
        "(27, 0x0000000000000000000000000000000000000000000000000000000000000000, 0x0000000000000000000000000000000000000000000000000000000000000000)"
      ],
      "transaction": {
        "type": "0x02",
        "from": "0x1733c691f9fce28141476f2d1121ba11a7a3b61b",
        "to": "0xc9672e0dd32237db0770fcbd3635693583be4c4f",
        "gas": "0x31b54",
        "value": "0x0",
        "data": "0xced454f90000000000000000000000000000000000000000000000000000000000a288ad0000000000000000000000000000000000000000000000000000000000000001000000000000000000000000000000000000000000000000000000000000001b00000000000000000000000000000000000000000000000000000000000000000000000000000000000000000000000000000000000000000000000000000000",
        "nonce": "0xd",
        "accessList": []
      },
      "additionalContracts": [],
      "isFixedGasLimit": false
    },
    {
      "hash": "0xd9a0a94b851020b9d06d01c8f218cd0c396f8e6e78189ae3a6690c26d651277b",
      "transactionType": "CALL",
      "contractName": null,
      "contractAddress": "0xc9672e0DD32237Db0770fcbD3635693583bE4c4f",
      "function": "buyUsingOracle((uint256,uint256),(uint8,bytes32,bytes32))",
      "arguments": [
        "(10651821, 1)",
        "(27, 0x0000000000000000000000000000000000000000000000000000000000000000, 0x0000000000000000000000000000000000000000000000000000000000000000)"
      ],
      "transaction": {
        "type": "0x02",
        "from": "0x1733c691f9fce28141476f2d1121ba11a7a3b61b",
        "to": "0xc9672e0dd32237db0770fcbd3635693583be4c4f",
        "gas": "0x1da5a",
        "value": "0x0",
        "data": "0xced454f90000000000000000000000000000000000000000000000000000000000a288ad0000000000000000000000000000000000000000000000000000000000000001000000000000000000000000000000000000000000000000000000000000001b00000000000000000000000000000000000000000000000000000000000000000000000000000000000000000000000000000000000000000000000000000000",
        "nonce": "0xe",
        "accessList": []
      },
      "additionalContracts": [],
      "isFixedGasLimit": false
    },
    {
      "hash": "0x78cdd5ef0df0e1e3402b48ab5ef40b327a5a0e48e2641c66f69dca570c807127",
      "transactionType": "CALL",
      "contractName": null,
      "contractAddress": "0xc9672e0DD32237Db0770fcbD3635693583bE4c4f",
      "function": "buyUsingOracle((uint256,uint256),(uint8,bytes32,bytes32))",
      "arguments": [
        "(10651821, 1)",
        "(27, 0x0000000000000000000000000000000000000000000000000000000000000000, 0x0000000000000000000000000000000000000000000000000000000000000000)"
      ],
      "transaction": {
        "type": "0x02",
        "from": "0x1733c691f9fce28141476f2d1121ba11a7a3b61b",
        "to": "0xc9672e0dd32237db0770fcbd3635693583be4c4f",
        "gas": "0x1da5a",
        "value": "0x0",
        "data": "0xced454f90000000000000000000000000000000000000000000000000000000000a288ad0000000000000000000000000000000000000000000000000000000000000001000000000000000000000000000000000000000000000000000000000000001b00000000000000000000000000000000000000000000000000000000000000000000000000000000000000000000000000000000000000000000000000000000",
        "nonce": "0xf",
        "accessList": []
      },
      "additionalContracts": [],
      "isFixedGasLimit": false
    },
    {
      "hash": "0x4f27dbbd9ebb63ec620129fe2a5c4e51d9f06ed49cee6cee0698a4dec8257833",
      "transactionType": "CALL",
      "contractName": null,
      "contractAddress": "0xc9672e0DD32237Db0770fcbD3635693583bE4c4f",
      "function": "buyUsingOracle((uint256,uint256),(uint8,bytes32,bytes32))",
      "arguments": [
        "(10651821, 1)",
        "(27, 0x0000000000000000000000000000000000000000000000000000000000000000, 0x0000000000000000000000000000000000000000000000000000000000000000)"
      ],
      "transaction": {
        "type": "0x02",
        "from": "0x1733c691f9fce28141476f2d1121ba11a7a3b61b",
        "to": "0xc9672e0dd32237db0770fcbd3635693583be4c4f",
        "gas": "0x1da5a",
        "value": "0x0",
        "data": "0xced454f90000000000000000000000000000000000000000000000000000000000a288ad0000000000000000000000000000000000000000000000000000000000000001000000000000000000000000000000000000000000000000000000000000001b00000000000000000000000000000000000000000000000000000000000000000000000000000000000000000000000000000000000000000000000000000000",
        "nonce": "0x10",
        "accessList": []
      },
      "additionalContracts": [],
      "isFixedGasLimit": false
    },
    {
      "hash": "0x9e0150fe9c849a506aed3e0dfa3cb576e87673812b206efdf20530b1a32cf813",
      "transactionType": "CALL",
      "contractName": null,
      "contractAddress": "0xc9672e0DD32237Db0770fcbD3635693583bE4c4f",
      "function": "buyUsingOracle((uint256,uint256),(uint8,bytes32,bytes32))",
      "arguments": [
        "(10651821, 1)",
        "(27, 0x0000000000000000000000000000000000000000000000000000000000000000, 0x0000000000000000000000000000000000000000000000000000000000000000)"
      ],
      "transaction": {
        "type": "0x02",
        "from": "0x1733c691f9fce28141476f2d1121ba11a7a3b61b",
        "to": "0xc9672e0dd32237db0770fcbd3635693583be4c4f",
        "gas": "0x1da5a",
        "value": "0x0",
        "data": "0xced454f90000000000000000000000000000000000000000000000000000000000a288ad0000000000000000000000000000000000000000000000000000000000000001000000000000000000000000000000000000000000000000000000000000001b00000000000000000000000000000000000000000000000000000000000000000000000000000000000000000000000000000000000000000000000000000000",
        "nonce": "0x11",
        "accessList": []
      },
      "additionalContracts": [],
      "isFixedGasLimit": false
    },
    {
      "hash": "0x88361e7ae98a7f3bcc5aa1a7a3a17e086981c05123d178733dd63533f958d0c5",
      "transactionType": "CALL",
      "contractName": null,
      "contractAddress": "0xc9672e0DD32237Db0770fcbD3635693583bE4c4f",
      "function": "buyUsingOracle((uint256,uint256),(uint8,bytes32,bytes32))",
      "arguments": [
        "(10651821, 1)",
        "(27, 0x0000000000000000000000000000000000000000000000000000000000000000, 0x0000000000000000000000000000000000000000000000000000000000000000)"
      ],
      "transaction": {
        "type": "0x02",
        "from": "0x1733c691f9fce28141476f2d1121ba11a7a3b61b",
        "to": "0xc9672e0dd32237db0770fcbd3635693583be4c4f",
        "gas": "0x1da5a",
        "value": "0x0",
        "data": "0xced454f90000000000000000000000000000000000000000000000000000000000a288ad0000000000000000000000000000000000000000000000000000000000000001000000000000000000000000000000000000000000000000000000000000001b00000000000000000000000000000000000000000000000000000000000000000000000000000000000000000000000000000000000000000000000000000000",
        "nonce": "0x12",
        "accessList": []
      },
      "additionalContracts": [],
      "isFixedGasLimit": false
    },
    {
      "hash": "0x4fa0c051d4b15c48546b6aadc559030403330c49983cc9ea75a608727555052d",
      "transactionType": "CALL",
      "contractName": null,
      "contractAddress": "0xc9672e0DD32237Db0770fcbD3635693583bE4c4f",
      "function": "buyUsingOracle((uint256,uint256),(uint8,bytes32,bytes32))",
      "arguments": [
        "(10651821, 1)",
        "(27, 0x0000000000000000000000000000000000000000000000000000000000000000, 0x0000000000000000000000000000000000000000000000000000000000000000)"
      ],
      "transaction": {
        "type": "0x02",
        "from": "0x1733c691f9fce28141476f2d1121ba11a7a3b61b",
        "to": "0xc9672e0dd32237db0770fcbd3635693583be4c4f",
        "gas": "0x1da5a",
        "value": "0x0",
        "data": "0xced454f90000000000000000000000000000000000000000000000000000000000a288ad0000000000000000000000000000000000000000000000000000000000000001000000000000000000000000000000000000000000000000000000000000001b00000000000000000000000000000000000000000000000000000000000000000000000000000000000000000000000000000000000000000000000000000000",
        "nonce": "0x13",
        "accessList": []
      },
      "additionalContracts": [],
      "isFixedGasLimit": false
    },
    {
      "hash": "0x3fd72b4f45e6e9451dcec5af3b0aba8616866ebb19191ec8aa06294660a54af6",
      "transactionType": "CALL",
      "contractName": null,
      "contractAddress": "0xc9672e0DD32237Db0770fcbD3635693583bE4c4f",
      "function": "buyUsingOracle((uint256,uint256),(uint8,bytes32,bytes32))",
      "arguments": [
        "(10651821, 1)",
        "(27, 0x0000000000000000000000000000000000000000000000000000000000000000, 0x0000000000000000000000000000000000000000000000000000000000000000)"
      ],
      "transaction": {
        "type": "0x02",
        "from": "0x1733c691f9fce28141476f2d1121ba11a7a3b61b",
        "to": "0xc9672e0dd32237db0770fcbd3635693583be4c4f",
        "gas": "0x1da5a",
        "value": "0x0",
        "data": "0xced454f90000000000000000000000000000000000000000000000000000000000a288ad0000000000000000000000000000000000000000000000000000000000000001000000000000000000000000000000000000000000000000000000000000001b00000000000000000000000000000000000000000000000000000000000000000000000000000000000000000000000000000000000000000000000000000000",
        "nonce": "0x14",
        "accessList": []
      },
      "additionalContracts": [],
      "isFixedGasLimit": false
    },
    {
      "hash": "0xf3fbfbe62071c5ee5d7f0f9ae785e24e145c9f2cd69027c65b251bb43d08911e",
      "transactionType": "CALL",
      "contractName": null,
      "contractAddress": "0xc9672e0DD32237Db0770fcbD3635693583bE4c4f",
      "function": "buyUsingOracle((uint256,uint256),(uint8,bytes32,bytes32))",
      "arguments": [
        "(10651821, 1)",
        "(27, 0x0000000000000000000000000000000000000000000000000000000000000000, 0x0000000000000000000000000000000000000000000000000000000000000000)"
      ],
      "transaction": {
        "type": "0x02",
        "from": "0x1733c691f9fce28141476f2d1121ba11a7a3b61b",
        "to": "0xc9672e0dd32237db0770fcbd3635693583be4c4f",
        "gas": "0x1da5a",
        "value": "0x0",
        "data": "0xced454f90000000000000000000000000000000000000000000000000000000000a288ad0000000000000000000000000000000000000000000000000000000000000001000000000000000000000000000000000000000000000000000000000000001b00000000000000000000000000000000000000000000000000000000000000000000000000000000000000000000000000000000000000000000000000000000",
        "nonce": "0x15",
        "accessList": []
      },
      "additionalContracts": [],
      "isFixedGasLimit": false
    },
    {
      "hash": "0x98a6abd6f3c4e616d892c48c464bd7d368f87493d2a293da60c3013dea3fa1cf",
      "transactionType": "CALL",
      "contractName": null,
      "contractAddress": "0xc9672e0DD32237Db0770fcbD3635693583bE4c4f",
      "function": "buyUsingOracle((uint256,uint256),(uint8,bytes32,bytes32))",
      "arguments": [
        "(10651821, 1)",
        "(27, 0x0000000000000000000000000000000000000000000000000000000000000000, 0x0000000000000000000000000000000000000000000000000000000000000000)"
      ],
      "transaction": {
        "type": "0x02",
        "from": "0x1733c691f9fce28141476f2d1121ba11a7a3b61b",
        "to": "0xc9672e0dd32237db0770fcbd3635693583be4c4f",
        "gas": "0x1a68e",
        "value": "0x0",
        "data": "0xced454f90000000000000000000000000000000000000000000000000000000000a288ad0000000000000000000000000000000000000000000000000000000000000001000000000000000000000000000000000000000000000000000000000000001b00000000000000000000000000000000000000000000000000000000000000000000000000000000000000000000000000000000000000000000000000000000",
        "nonce": "0x16",
        "accessList": []
      },
      "additionalContracts": [],
      "isFixedGasLimit": false
    }
  ],
  "receipts": [],
  "libraries": [],
  "pending": [
    "0x140666b3342c855e2476a3484c72d331c2feff4c6ee1eb5b2aade94e7ae98ec6",
    "0xa57b165665b7afaf86d68e62d06c929c0a1aa58f096e937b2dfa090568961533",
    "0xd9a0a94b851020b9d06d01c8f218cd0c396f8e6e78189ae3a6690c26d651277b",
    "0x78cdd5ef0df0e1e3402b48ab5ef40b327a5a0e48e2641c66f69dca570c807127",
    "0x4f27dbbd9ebb63ec620129fe2a5c4e51d9f06ed49cee6cee0698a4dec8257833",
    "0x9e0150fe9c849a506aed3e0dfa3cb576e87673812b206efdf20530b1a32cf813",
    "0x88361e7ae98a7f3bcc5aa1a7a3a17e086981c05123d178733dd63533f958d0c5",
    "0x4fa0c051d4b15c48546b6aadc559030403330c49983cc9ea75a608727555052d",
    "0x3fd72b4f45e6e9451dcec5af3b0aba8616866ebb19191ec8aa06294660a54af6",
    "0xf3fbfbe62071c5ee5d7f0f9ae785e24e145c9f2cd69027c65b251bb43d08911e",
    "0x98a6abd6f3c4e616d892c48c464bd7d368f87493d2a293da60c3013dea3fa1cf"
  ],
  "returns": {},
  "timestamp": 1709907448,
  "chain": 5,
  "multi": false,
  "commit": "9458e78"
}