{
  "transactions": [
    {
      "hash": "0x140666b3342c855e2476a3484c72d331c2feff4c6ee1eb5b2aade94e7ae98ec6",
      "transactionType": "CALL",
      "contractName": null,
      "contractAddress": "0x090fDc18c1c143f5C4E5573bECaD5261B5Ce46aE",
      "function": "approve(address,uint256)",
      "arguments": [
        "0xc9672e0DD32237Db0770fcbD3635693583bE4c4f",
        "10"
      ],
      "transaction": {
        "type": "0x02",
        "from": "0x1733c691f9fce28141476f2d1121ba11a7a3b61b",
        "to": "0x090fdc18c1c143f5c4e5573becad5261b5ce46ae",
        "gas": "0xf8b3",
        "value": "0x0",
        "data": "0x095ea7b3000000000000000000000000c9672e0dd32237db0770fcbd3635693583be4c4f000000000000000000000000000000000000000000000000000000000000000a",
        "nonce": "0xc",
        "accessList": []
      },
      "additionalContracts": [],
      "isFixedGasLimit": false
    },
    {
      "hash": "0xa57b165665b7afaf86d68e62d06c929c0a1aa58f096e937b2dfa090568961533",
      "transactionType": "CALL",
      "contractName": null,
      "contractAddress": "0xc9672e0DD32237Db0770fcbD3635693583bE4c4f",
      "function": "buyUsingOracle((uint256,uint256),(uint8,bytes32,bytes32))",
      "arguments": [
        "(10651821, 1)",
        "(27, 0x0000000000000000000000000000000000000000000000000000000000000000, 0x0000000000000000000000000000000000000000000000000000000000000000)"
      ],
      "transaction": {
        "type": "0x02",
        "from": "0x1733c691f9fce28141476f2d1121ba11a7a3b61b",
        "to": "0xc9672e0dd32237db0770fcbd3635693583be4c4f",
        "gas": "0x31b54",
        "value": "0x0",
        "data": "0xced454f90000000000000000000000000000000000000000000000000000000000a288ad0000000000000000000000000000000000000000000000000000000000000001000000000000000000000000000000000000000000000000000000000000001b00000000000000000000000000000000000000000000000000000000000000000000000000000000000000000000000000000000000000000000000000000000",
        "nonce": "0xd",
        "accessList": []
      },
      "additionalContracts": [],
      "isFixedGasLimit": false
    },
    {
      "hash": "0xd9a0a94b851020b9d06d01c8f218cd0c396f8e6e78189ae3a6690c26d651277b",
      "transactionType": "CALL",
      "contractName": null,
      "contractAddress": "0xc9672e0DD32237Db0770fcbD3635693583bE4c4f",
      "function": "buyUsingOracle((uint256,uint256),(uint8,bytes32,bytes32))",
      "arguments": [
        "(10651821, 1)",
        "(27, 0x0000000000000000000000000000000000000000000000000000000000000000, 0x0000000000000000000000000000000000000000000000000000000000000000)"
      ],
      "transaction": {
        "type": "0x02",
        "from": "0x1733c691f9fce28141476f2d1121ba11a7a3b61b",
        "to": "0xc9672e0dd32237db0770fcbd3635693583be4c4f",
        "gas": "0x1da5a",
        "value": "0x0",
        "data": "0xced454f90000000000000000000000000000000000000000000000000000000000a288ad0000000000000000000000000000000000000000000000000000000000000001000000000000000000000000000000000000000000000000000000000000001b00000000000000000000000000000000000000000000000000000000000000000000000000000000000000000000000000000000000000000000000000000000",
        "nonce": "0xe",
        "accessList": []
      },
      "additionalContracts": [],
      "isFixedGasLimit": false
    },
    {
      "hash": "0x78cdd5ef0df0e1e3402b48ab5ef40b327a5a0e48e2641c66f69dca570c807127",
      "transactionType": "CALL",
      "contractName": null,
      "contractAddress": "0xc9672e0DD32237Db0770fcbD3635693583bE4c4f",
      "function": "buyUsingOracle((uint256,uint256),(uint8,bytes32,bytes32))",
      "arguments": [
        "(10651821, 1)",
        "(27, 0x0000000000000000000000000000000000000000000000000000000000000000, 0x0000000000000000000000000000000000000000000000000000000000000000)"
      ],
      "transaction": {
        "type": "0x02",
        "from": "0x1733c691f9fce28141476f2d1121ba11a7a3b61b",
        "to": "0xc9672e0dd32237db0770fcbd3635693583be4c4f",
        "gas": "0x1da5a",
        "value": "0x0",
        "data": "0xced454f90000000000000000000000000000000000000000000000000000000000a288ad0000000000000000000000000000000000000000000000000000000000000001000000000000000000000000000000000000000000000000000000000000001b00000000000000000000000000000000000000000000000000000000000000000000000000000000000000000000000000000000000000000000000000000000",
        "nonce": "0xf",
        "accessList": []
      },
      "additionalContracts": [],
      "isFixedGasLimit": false
    },
    {
      "hash": "0x4f27dbbd9ebb63ec620129fe2a5c4e51d9f06ed49cee6cee0698a4dec8257833",
      "transactionType": "CALL",
      "contractName": null,
      "contractAddress": "0xc9672e0DD32237Db0770fcbD3635693583bE4c4f",
      "function": "buyUsingOracle((uint256,uint256),(uint8,bytes32,bytes32))",
      "arguments": [
        "(10651821, 1)",
        "(27, 0x0000000000000000000000000000000000000000000000000000000000000000, 0x0000000000000000000000000000000000000000000000000000000000000000)"
      ],
      "transaction": {
        "type": "0x02",
        "from": "0x1733c691f9fce28141476f2d1121ba11a7a3b61b",
        "to": "0xc9672e0dd32237db0770fcbd3635693583be4c4f",
        "gas": "0x1da5a",
        "value": "0x0",
        "data": "0xced454f90000000000000000000000000000000000000000000000000000000000a288ad0000000000000000000000000000000000000000000000000000000000000001000000000000000000000000000000000000000000000000000000000000001b00000000000000000000000000000000000000000000000000000000000000000000000000000000000000000000000000000000000000000000000000000000",
        "nonce": "0x10",
        "accessList": []
      },
      "additionalContracts": [],
      "isFixedGasLimit": false
    },
    {
      "hash": "0x9e0150fe9c849a506aed3e0dfa3cb576e87673812b206efdf20530b1a32cf813",
      "transactionType": "CALL",
      "contractName": null,
      "contractAddress": "0xc9672e0DD32237Db0770fcbD3635693583bE4c4f",
      "function": "buyUsingOracle((uint256,uint256),(uint8,bytes32,bytes32))",
      "arguments": [
        "(10651821, 1)",
        "(27, 0x0000000000000000000000000000000000000000000000000000000000000000, 0x0000000000000000000000000000000000000000000000000000000000000000)"
      ],
      "transaction": {
        "type": "0x02",
        "from": "0x1733c691f9fce28141476f2d1121ba11a7a3b61b",
        "to": "0xc9672e0dd32237db0770fcbd3635693583be4c4f",
        "gas": "0x1da5a",
        "value": "0x0",
        "data": "0xced454f90000000000000000000000000000000000000000000000000000000000a288ad0000000000000000000000000000000000000000000000000000000000000001000000000000000000000000000000000000000000000000000000000000001b00000000000000000000000000000000000000000000000000000000000000000000000000000000000000000000000000000000000000000000000000000000",
        "nonce": "0x11",
        "accessList": []
      },
      "additionalContracts": [],
      "isFixedGasLimit": false
    },
    {
      "hash": "0x88361e7ae98a7f3bcc5aa1a7a3a17e086981c05123d178733dd63533f958d0c5",
      "transactionType": "CALL",
      "contractName": null,
      "contractAddress": "0xc9672e0DD32237Db0770fcbD3635693583bE4c4f",
      "function": "buyUsingOracle((uint256,uint256),(uint8,bytes32,bytes32))",
      "arguments": [
        "(10651821, 1)",
        "(27, 0x0000000000000000000000000000000000000000000000000000000000000000, 0x0000000000000000000000000000000000000000000000000000000000000000)"
      ],
      "transaction": {
        "type": "0x02",
        "from": "0x1733c691f9fce28141476f2d1121ba11a7a3b61b",
        "to": "0xc9672e0dd32237db0770fcbd3635693583be4c4f",
        "gas": "0x1da5a",
        "value": "0x0",
        "data": "0xced454f90000000000000000000000000000000000000000000000000000000000a288ad0000000000000000000000000000000000000000000000000000000000000001000000000000000000000000000000000000000000000000000000000000001b00000000000000000000000000000000000000000000000000000000000000000000000000000000000000000000000000000000000000000000000000000000",
        "nonce": "0x12",
        "accessList": []
      },
      "additionalContracts": [],
      "isFixedGasLimit": false
    },
    {
      "hash": "0x4fa0c051d4b15c48546b6aadc559030403330c49983cc9ea75a608727555052d",
      "transactionType": "CALL",
      "contractName": null,
      "contractAddress": "0xc9672e0DD32237Db0770fcbD3635693583bE4c4f",
      "function": "buyUsingOracle((uint256,uint256),(uint8,bytes32,bytes32))",
      "arguments": [
        "(10651821, 1)",
        "(27, 0x0000000000000000000000000000000000000000000000000000000000000000, 0x0000000000000000000000000000000000000000000000000000000000000000)"
      ],
      "transaction": {
        "type": "0x02",
        "from": "0x1733c691f9fce28141476f2d1121ba11a7a3b61b",
        "to": "0xc9672e0dd32237db0770fcbd3635693583be4c4f",
        "gas": "0x1da5a",
        "value": "0x0",
        "data": "0xced454f90000000000000000000000000000000000000000000000000000000000a288ad0000000000000000000000000000000000000000000000000000000000000001000000000000000000000000000000000000000000000000000000000000001b00000000000000000000000000000000000000000000000000000000000000000000000000000000000000000000000000000000000000000000000000000000",
        "nonce": "0x13",
        "accessList": []
      },
      "additionalContracts": [],
      "isFixedGasLimit": false
    },
    {
      "hash": "0x3fd72b4f45e6e9451dcec5af3b0aba8616866ebb19191ec8aa06294660a54af6",
      "transactionType": "CALL",
      "contractName": null,
      "contractAddress": "0xc9672e0DD32237Db0770fcbD3635693583bE4c4f",
      "function": "buyUsingOracle((uint256,uint256),(uint8,bytes32,bytes32))",
      "arguments": [
        "(10651821, 1)",
        "(27, 0x0000000000000000000000000000000000000000000000000000000000000000, 0x0000000000000000000000000000000000000000000000000000000000000000)"
      ],
      "transaction": {
        "type": "0x02",
        "from": "0x1733c691f9fce28141476f2d1121ba11a7a3b61b",
        "to": "0xc9672e0dd32237db0770fcbd3635693583be4c4f",
        "gas": "0x1da5a",
        "value": "0x0",
        "data": "0xced454f90000000000000000000000000000000000000000000000000000000000a288ad0000000000000000000000000000000000000000000000000000000000000001000000000000000000000000000000000000000000000000000000000000001b00000000000000000000000000000000000000000000000000000000000000000000000000000000000000000000000000000000000000000000000000000000",
        "nonce": "0x14",
        "accessList": []
      },
      "additionalContracts": [],
      "isFixedGasLimit": false
    },
    {
      "hash": "0xf3fbfbe62071c5ee5d7f0f9ae785e24e145c9f2cd69027c65b251bb43d08911e",
      "transactionType": "CALL",
      "contractName": null,
      "contractAddress": "0xc9672e0DD32237Db0770fcbD3635693583bE4c4f",
      "function": "buyUsingOracle((uint256,uint256),(uint8,bytes32,bytes32))",
      "arguments": [
        "(10651821, 1)",
        "(27, 0x0000000000000000000000000000000000000000000000000000000000000000, 0x0000000000000000000000000000000000000000000000000000000000000000)"
      ],
      "transaction": {
        "type": "0x02",
        "from": "0x1733c691f9fce28141476f2d1121ba11a7a3b61b",
        "to": "0xc9672e0dd32237db0770fcbd3635693583be4c4f",
        "gas": "0x1da5a",
        "value": "0x0",
        "data": "0xced454f90000000000000000000000000000000000000000000000000000000000a288ad0000000000000000000000000000000000000000000000000000000000000001000000000000000000000000000000000000000000000000000000000000001b00000000000000000000000000000000000000000000000000000000000000000000000000000000000000000000000000000000000000000000000000000000",
        "nonce": "0x15",
        "accessList": []
      },
      "additionalContracts": [],
      "isFixedGasLimit": false
    },
    {
      "hash": "0x98a6abd6f3c4e616d892c48c464bd7d368f87493d2a293da60c3013dea3fa1cf",
      "transactionType": "CALL",
      "contractName": null,
      "contractAddress": "0xc9672e0DD32237Db0770fcbD3635693583bE4c4f",
      "function": "buyUsingOracle((uint256,uint256),(uint8,bytes32,bytes32))",
      "arguments": [
        "(10651821, 1)",
        "(27, 0x0000000000000000000000000000000000000000000000000000000000000000, 0x0000000000000000000000000000000000000000000000000000000000000000)"
      ],
      "transaction": {
        "type": "0x02",
        "from": "0x1733c691f9fce28141476f2d1121ba11a7a3b61b",
        "to": "0xc9672e0dd32237db0770fcbd3635693583be4c4f",
        "gas": "0x1a68e",
        "value": "0x0",
        "data": "0xced454f90000000000000000000000000000000000000000000000000000000000a288ad0000000000000000000000000000000000000000000000000000000000000001000000000000000000000000000000000000000000000000000000000000001b00000000000000000000000000000000000000000000000000000000000000000000000000000000000000000000000000000000000000000000000000000000",
        "nonce": "0x16",
        "accessList": []
      },
      "additionalContracts": [],
      "isFixedGasLimit": false
    }
  ],
  "receipts": [
    {
      "transactionHash": "0x140666b3342c855e2476a3484c72d331c2feff4c6ee1eb5b2aade94e7ae98ec6",
      "transactionIndex": "0xa",
      "blockHash": "0xfc78f088c6cf8231a19825a97abfa611557ab2ebb7fc8ef1fe8dd0bad0be016c",
      "blockNumber": "0xa288ae",
      "from": "0x1733C691f9FCe28141476f2D1121ba11a7A3b61B",
      "to": "0x090fDc18c1c143f5C4E5573bECaD5261B5Ce46aE",
      "cumulativeGasUsed": "0x699b6",
      "gasUsed": "0xb40f",
      "contractAddress": null,
      "logs": [
        {
          "address": "0x090fDc18c1c143f5C4E5573bECaD5261B5Ce46aE",
          "topics": [
            "0x8c5be1e5ebec7d5bd14f71427d1e84f3dd0314c0f7b2291e5b200ac8c7c3b925",
            "0x0000000000000000000000001733c691f9fce28141476f2d1121ba11a7a3b61b",
            "0x000000000000000000000000c9672e0dd32237db0770fcbd3635693583be4c4f"
          ],
          "data": "0x000000000000000000000000000000000000000000000000000000000000000a",
          "blockHash": "0xfc78f088c6cf8231a19825a97abfa611557ab2ebb7fc8ef1fe8dd0bad0be016c",
          "blockNumber": "0xa288ae",
          "transactionHash": "0x140666b3342c855e2476a3484c72d331c2feff4c6ee1eb5b2aade94e7ae98ec6",
          "transactionIndex": "0xa",
          "logIndex": "0x4",
          "removed": false
        }
      ],
      "status": "0x1",
      "logsBloom": "0x00000000000000000000000000800000000000000000000000000000000000000000000000000000000000000000000000000000000000000000000000200000000000000000000000000000000000000000000000000000000000000000000000000000000200000000000400000000000000000000000000000000000000400000000000000000000000000000000000000000000000000020000000000000020000000000000000000000000000000004000001000000000000000000000000000000000000000000000000000000000000000000000000000000000000000010000000000000010000000000000000000000000000000008000000000000",
      "type": "0x2",
      "effectiveGasPrice": "0xb2d05e10"
    },
    {
      "transactionHash": "0xa57b165665b7afaf86d68e62d06c929c0a1aa58f096e937b2dfa090568961533",
      "transactionIndex": "0xb",
      "blockHash": "0xfc78f088c6cf8231a19825a97abfa611557ab2ebb7fc8ef1fe8dd0bad0be016c",
      "blockNumber": "0xa288ae",
      "from": "0x1733C691f9FCe28141476f2D1121ba11a7A3b61B",
      "to": "0xc9672e0DD32237Db0770fcbD3635693583bE4c4f",
      "cumulativeGasUsed": "0x8b987",
      "gasUsed": "0x21fd1",
      "contractAddress": null,
      "logs": [
        {
          "address": "0x090fDc18c1c143f5C4E5573bECaD5261B5Ce46aE",
          "topics": [
            "0xddf252ad1be2c89b69c2b068fc378daa952ba7f163c4a11628f55a4df523b3ef",
            "0x0000000000000000000000001733c691f9fce28141476f2d1121ba11a7a3b61b",
            "0x000000000000000000000000c9672e0dd32237db0770fcbd3635693583be4c4f"
          ],
          "data": "0x0000000000000000000000000000000000000000000000000000000000000001",
          "blockHash": "0xfc78f088c6cf8231a19825a97abfa611557ab2ebb7fc8ef1fe8dd0bad0be016c",
          "blockNumber": "0xa288ae",
          "transactionHash": "0xa57b165665b7afaf86d68e62d06c929c0a1aa58f096e937b2dfa090568961533",
          "transactionIndex": "0xb",
          "logIndex": "0x5",
          "removed": false
        },
        {
          "address": "0xAFC880A0879304Fc2797D8b146B25fE3390B5f50",
          "topics": [
            "0xddf252ad1be2c89b69c2b068fc378daa952ba7f163c4a11628f55a4df523b3ef",
            "0x0000000000000000000000000000000000000000000000000000000000000000",
            "0x0000000000000000000000001733c691f9fce28141476f2d1121ba11a7a3b61b",
            "0x0000000000000000000000000000000000000000000000000000000000000000"
          ],
          "data": "0x",
          "blockHash": "0xfc78f088c6cf8231a19825a97abfa611557ab2ebb7fc8ef1fe8dd0bad0be016c",
          "blockNumber": "0xa288ae",
          "transactionHash": "0xa57b165665b7afaf86d68e62d06c929c0a1aa58f096e937b2dfa090568961533",
          "transactionIndex": "0xb",
          "logIndex": "0x6",
          "removed": false
        }
      ],
      "status": "0x1",
      "logsBloom": "0x00000000000000000000000000800000000000000000000000000000000000000000000000000000000000000000000000000000000000000000000000000000000000000000000000000008000000000000000000000000000000000000000008000000020200000000000400000800000000000000000000000010000000400000000000000000000000000000000000000000000000000020000000000000000000000000000000000000000000000004000001000000000000008000000000000002000000000000000000000000000000000000000000000000000020000000000000000000010000000000000000000000000000008008000000000000",
      "type": "0x2",
      "effectiveGasPrice": "0xb2d05e10"
    },
    {
      "transactionHash": "0xd9a0a94b851020b9d06d01c8f218cd0c396f8e6e78189ae3a6690c26d651277b",
      "transactionIndex": "0xc",
      "blockHash": "0xfc78f088c6cf8231a19825a97abfa611557ab2ebb7fc8ef1fe8dd0bad0be016c",
      "blockNumber": "0xa288ae",
      "from": "0x1733C691f9FCe28141476f2D1121ba11a7A3b61B",
      "to": "0xc9672e0DD32237Db0770fcbD3635693583bE4c4f",
      "cumulativeGasUsed": "0xa10f4",
      "gasUsed": "0x1576d",
      "contractAddress": null,
      "logs": [
        {
          "address": "0x090fDc18c1c143f5C4E5573bECaD5261B5Ce46aE",
          "topics": [
            "0xddf252ad1be2c89b69c2b068fc378daa952ba7f163c4a11628f55a4df523b3ef",
            "0x0000000000000000000000001733c691f9fce28141476f2d1121ba11a7a3b61b",
            "0x000000000000000000000000c9672e0dd32237db0770fcbd3635693583be4c4f"
          ],
          "data": "0x0000000000000000000000000000000000000000000000000000000000000001",
          "blockHash": "0xfc78f088c6cf8231a19825a97abfa611557ab2ebb7fc8ef1fe8dd0bad0be016c",
          "blockNumber": "0xa288ae",
          "transactionHash": "0xd9a0a94b851020b9d06d01c8f218cd0c396f8e6e78189ae3a6690c26d651277b",
          "transactionIndex": "0xc",
          "logIndex": "0x7",
          "removed": false
        },
        {
          "address": "0xAFC880A0879304Fc2797D8b146B25fE3390B5f50",
          "topics": [
            "0xddf252ad1be2c89b69c2b068fc378daa952ba7f163c4a11628f55a4df523b3ef",
            "0x0000000000000000000000000000000000000000000000000000000000000000",
            "0x0000000000000000000000001733c691f9fce28141476f2d1121ba11a7a3b61b",
            "0x0000000000000000000000000000000000000000000000000000000000000001"
          ],
          "data": "0x",
          "blockHash": "0xfc78f088c6cf8231a19825a97abfa611557ab2ebb7fc8ef1fe8dd0bad0be016c",
          "blockNumber": "0xa288ae",
          "transactionHash": "0xd9a0a94b851020b9d06d01c8f218cd0c396f8e6e78189ae3a6690c26d651277b",
          "transactionIndex": "0xc",
          "logIndex": "0x8",
          "removed": false
        }
      ],
      "status": "0x1",
      "logsBloom": "0x00000000000000000000000000800000000000000000000000000000000000000000000000000000000000000000000000000000000000000000000000040000000000000000000000000008000000000000000000040000000000000000000008000000020200000000000400000800000000000000000000000010000000400000000000000000000000000000000000000000000000000020000000000000000000000000000000000000000000000004000001000000000000008000000000000002000000000000000000000000000000000000000000000000000060000000000000000000010000000000000000000000000000008008000000000000",
      "type": "0x2",
      "effectiveGasPrice": "0xb2d05e10"
    },
    {
      "transactionHash": "0x78cdd5ef0df0e1e3402b48ab5ef40b327a5a0e48e2641c66f69dca570c807127",
      "transactionIndex": "0xd",
      "blockHash": "0xfc78f088c6cf8231a19825a97abfa611557ab2ebb7fc8ef1fe8dd0bad0be016c",
      "blockNumber": "0xa288ae",
      "from": "0x1733C691f9FCe28141476f2D1121ba11a7A3b61B",
      "to": "0xc9672e0DD32237Db0770fcbD3635693583bE4c4f",
      "cumulativeGasUsed": "0xb6861",
      "gasUsed": "0x1576d",
      "contractAddress": null,
      "logs": [
        {
          "address": "0x090fDc18c1c143f5C4E5573bECaD5261B5Ce46aE",
          "topics": [
            "0xddf252ad1be2c89b69c2b068fc378daa952ba7f163c4a11628f55a4df523b3ef",
            "0x0000000000000000000000001733c691f9fce28141476f2d1121ba11a7a3b61b",
            "0x000000000000000000000000c9672e0dd32237db0770fcbd3635693583be4c4f"
          ],
          "data": "0x0000000000000000000000000000000000000000000000000000000000000001",
          "blockHash": "0xfc78f088c6cf8231a19825a97abfa611557ab2ebb7fc8ef1fe8dd0bad0be016c",
          "blockNumber": "0xa288ae",
          "transactionHash": "0x78cdd5ef0df0e1e3402b48ab5ef40b327a5a0e48e2641c66f69dca570c807127",
          "transactionIndex": "0xd",
          "logIndex": "0x9",
          "removed": false
        },
        {
          "address": "0xAFC880A0879304Fc2797D8b146B25fE3390B5f50",
          "topics": [
            "0xddf252ad1be2c89b69c2b068fc378daa952ba7f163c4a11628f55a4df523b3ef",
            "0x0000000000000000000000000000000000000000000000000000000000000000",
            "0x0000000000000000000000001733c691f9fce28141476f2d1121ba11a7a3b61b",
            "0x0000000000000000000000000000000000000000000000000000000000000002"
          ],
          "data": "0x",
          "blockHash": "0xfc78f088c6cf8231a19825a97abfa611557ab2ebb7fc8ef1fe8dd0bad0be016c",
          "blockNumber": "0xa288ae",
          "transactionHash": "0x78cdd5ef0df0e1e3402b48ab5ef40b327a5a0e48e2641c66f69dca570c807127",
          "transactionIndex": "0xd",
          "logIndex": "0xa",
          "removed": false
        }
      ],
      "status": "0x1",
      "logsBloom": "0x04000000000000000000000000800000000000000000000000000000000000000000000000000000000000000000000000000000000000000000000000000000000000000000000000000008000000000000000000000000000000000000000008000000020200000000000400000800000000000000000000000010000000400000000000000000000000000000000000000000000000000020000000000000000000000000000000000100000000000004000001000000000000008000000000000002000000000000000000000000000000000000000000000000000020000000000000000000010000000000000000000000008000008008000000000000",
      "type": "0x2",
      "effectiveGasPrice": "0xb2d05e10"
    },
    {
      "transactionHash": "0x4f27dbbd9ebb63ec620129fe2a5c4e51d9f06ed49cee6cee0698a4dec8257833",
      "transactionIndex": "0xa",
      "blockHash": "0xea3f5189dc08589f050073f463acab72ec5a9d9c106fc8a27490d7a029ca7229",
      "blockNumber": "0xa288af",
      "from": "0x1733C691f9FCe28141476f2D1121ba11a7A3b61B",
      "to": "0xc9672e0DD32237Db0770fcbD3635693583bE4c4f",
      "cumulativeGasUsed": "0x7f223",
      "gasUsed": "0x1576d",
      "contractAddress": null,
      "logs": [
        {
          "address": "0x090fDc18c1c143f5C4E5573bECaD5261B5Ce46aE",
          "topics": [
            "0xddf252ad1be2c89b69c2b068fc378daa952ba7f163c4a11628f55a4df523b3ef",
            "0x0000000000000000000000001733c691f9fce28141476f2d1121ba11a7a3b61b",
            "0x000000000000000000000000c9672e0dd32237db0770fcbd3635693583be4c4f"
          ],
          "data": "0x0000000000000000000000000000000000000000000000000000000000000001",
          "blockHash": "0xea3f5189dc08589f050073f463acab72ec5a9d9c106fc8a27490d7a029ca7229",
          "blockNumber": "0xa288af",
          "transactionHash": "0x4f27dbbd9ebb63ec620129fe2a5c4e51d9f06ed49cee6cee0698a4dec8257833",
          "transactionIndex": "0xa",
          "logIndex": "0x5",
          "removed": false
        },
        {
          "address": "0xAFC880A0879304Fc2797D8b146B25fE3390B5f50",
          "topics": [
            "0xddf252ad1be2c89b69c2b068fc378daa952ba7f163c4a11628f55a4df523b3ef",
            "0x0000000000000000000000000000000000000000000000000000000000000000",
            "0x0000000000000000000000001733c691f9fce28141476f2d1121ba11a7a3b61b",
            "0x0000000000000000000000000000000000000000000000000000000000000003"
          ],
          "data": "0x",
          "blockHash": "0xea3f5189dc08589f050073f463acab72ec5a9d9c106fc8a27490d7a029ca7229",
          "blockNumber": "0xa288af",
          "transactionHash": "0x4f27dbbd9ebb63ec620129fe2a5c4e51d9f06ed49cee6cee0698a4dec8257833",
          "transactionIndex": "0xa",
          "logIndex": "0x6",
          "removed": false
        }
      ],
      "status": "0x1",
      "logsBloom": "0x00000000000000000000000000800000000000000000000000000000000000000000000000000000000000000000000000000000020000000000000000000000000000000000000000000008000000000000000000000000000000000000000008000000020200000000000400000800000000000000000000000010000000400000000000000000000000000000000000000000000000000020000000000000000000000000000000000000000000000004000001800000000000008000400000000002000000000000000000000000000000000000000000000000000020000000000000000000010000000000000000000000000000008008000000000000",
      "type": "0x2",
      "effectiveGasPrice": "0xb2d05e11"
    },
    {
      "transactionHash": "0x9e0150fe9c849a506aed3e0dfa3cb576e87673812b206efdf20530b1a32cf813",
      "transactionIndex": "0xb",
      "blockHash": "0xea3f5189dc08589f050073f463acab72ec5a9d9c106fc8a27490d7a029ca7229",
      "blockNumber": "0xa288af",
      "from": "0x1733C691f9FCe28141476f2D1121ba11a7A3b61B",
      "to": "0xc9672e0DD32237Db0770fcbD3635693583bE4c4f",
      "cumulativeGasUsed": "0x94990",
      "gasUsed": "0x1576d",
      "contractAddress": null,
      "logs": [
        {
          "address": "0x090fDc18c1c143f5C4E5573bECaD5261B5Ce46aE",
          "topics": [
            "0xddf252ad1be2c89b69c2b068fc378daa952ba7f163c4a11628f55a4df523b3ef",
            "0x0000000000000000000000001733c691f9fce28141476f2d1121ba11a7a3b61b",
            "0x000000000000000000000000c9672e0dd32237db0770fcbd3635693583be4c4f"
          ],
          "data": "0x0000000000000000000000000000000000000000000000000000000000000001",
          "blockHash": "0xea3f5189dc08589f050073f463acab72ec5a9d9c106fc8a27490d7a029ca7229",
          "blockNumber": "0xa288af",
          "transactionHash": "0x9e0150fe9c849a506aed3e0dfa3cb576e87673812b206efdf20530b1a32cf813",
          "transactionIndex": "0xb",
          "logIndex": "0x7",
          "removed": false
        },
        {
          "address": "0xAFC880A0879304Fc2797D8b146B25fE3390B5f50",
          "topics": [
            "0xddf252ad1be2c89b69c2b068fc378daa952ba7f163c4a11628f55a4df523b3ef",
            "0x0000000000000000000000000000000000000000000000000000000000000000",
            "0x0000000000000000000000001733c691f9fce28141476f2d1121ba11a7a3b61b",
            "0x0000000000000000000000000000000000000000000000000000000000000004"
          ],
          "data": "0x",
          "blockHash": "0xea3f5189dc08589f050073f463acab72ec5a9d9c106fc8a27490d7a029ca7229",
          "blockNumber": "0xa288af",
          "transactionHash": "0x9e0150fe9c849a506aed3e0dfa3cb576e87673812b206efdf20530b1a32cf813",
          "transactionIndex": "0xb",
          "logIndex": "0x8",
          "removed": false
        }
      ],
      "status": "0x1",
      "logsBloom": "0x00000000000000000000000000800000000000000000000000000000000000000000000000000000000000000000000000000000000000000000000000000000000000000000000000000008000000000000000000000000000000000000000008000000020200000000000400000800000000000000000000000010000000400000000000000000000000000000000000000000000000000020000000000000000000000000000000000000000000000004000001000000002000008000000000000002000000000000000000000000000000008000000000000000000020000000000000000000010000000000000000000000000000008008000000000000",
      "type": "0x2",
      "effectiveGasPrice": "0xb2d05e11"
    },
    {
      "transactionHash": "0x88361e7ae98a7f3bcc5aa1a7a3a17e086981c05123d178733dd63533f958d0c5",
      "transactionIndex": "0xc",
      "blockHash": "0xea3f5189dc08589f050073f463acab72ec5a9d9c106fc8a27490d7a029ca7229",
      "blockNumber": "0xa288af",
      "from": "0x1733C691f9FCe28141476f2D1121ba11a7A3b61B",
      "to": "0xc9672e0DD32237Db0770fcbD3635693583bE4c4f",
      "cumulativeGasUsed": "0xaa0fd",
      "gasUsed": "0x1576d",
      "contractAddress": null,
      "logs": [
        {
          "address": "0x090fDc18c1c143f5C4E5573bECaD5261B5Ce46aE",
          "topics": [
            "0xddf252ad1be2c89b69c2b068fc378daa952ba7f163c4a11628f55a4df523b3ef",
            "0x0000000000000000000000001733c691f9fce28141476f2d1121ba11a7a3b61b",
            "0x000000000000000000000000c9672e0dd32237db0770fcbd3635693583be4c4f"
          ],
          "data": "0x0000000000000000000000000000000000000000000000000000000000000001",
          "blockHash": "0xea3f5189dc08589f050073f463acab72ec5a9d9c106fc8a27490d7a029ca7229",
          "blockNumber": "0xa288af",
          "transactionHash": "0x88361e7ae98a7f3bcc5aa1a7a3a17e086981c05123d178733dd63533f958d0c5",
          "transactionIndex": "0xc",
          "logIndex": "0x9",
          "removed": false
        },
        {
          "address": "0xAFC880A0879304Fc2797D8b146B25fE3390B5f50",
          "topics": [
            "0xddf252ad1be2c89b69c2b068fc378daa952ba7f163c4a11628f55a4df523b3ef",
            "0x0000000000000000000000000000000000000000000000000000000000000000",
            "0x0000000000000000000000001733c691f9fce28141476f2d1121ba11a7a3b61b",
            "0x0000000000000000000000000000000000000000000000000000000000000005"
          ],
          "data": "0x",
          "blockHash": "0xea3f5189dc08589f050073f463acab72ec5a9d9c106fc8a27490d7a029ca7229",
          "blockNumber": "0xa288af",
          "transactionHash": "0x88361e7ae98a7f3bcc5aa1a7a3a17e086981c05123d178733dd63533f958d0c5",
          "transactionIndex": "0xc",
          "logIndex": "0xa",
          "removed": false
        }
      ],
      "status": "0x1",
      "logsBloom": "0x00000000000000000000000000800000000000000000000000000000000000000000000000000000000000000000000000000000000000000000000000000000000010000000000000000008000000000000000000000000000000000000000008000000020200000000000400000800000000000000000000000010000000400000000000000000000000000000001000000800000000000020000000000000000000000000000000000000000000000004000001000000000000008000000000000002000000000000000000000000000000000000000000000000000020000000000000000000010000000000000000000000000000008008000000000000",
      "type": "0x2",
      "effectiveGasPrice": "0xb2d05e11"
    },
    {
      "transactionHash": "0x4fa0c051d4b15c48546b6aadc559030403330c49983cc9ea75a608727555052d",
      "transactionIndex": "0xd",
      "blockHash": "0xea3f5189dc08589f050073f463acab72ec5a9d9c106fc8a27490d7a029ca7229",
      "blockNumber": "0xa288af",
      "from": "0x1733C691f9FCe28141476f2D1121ba11a7A3b61B",
      "to": "0xc9672e0DD32237Db0770fcbD3635693583bE4c4f",
      "cumulativeGasUsed": "0xbf86a",
      "gasUsed": "0x1576d",
      "contractAddress": null,
      "logs": [
        {
          "address": "0x090fDc18c1c143f5C4E5573bECaD5261B5Ce46aE",
          "topics": [
            "0xddf252ad1be2c89b69c2b068fc378daa952ba7f163c4a11628f55a4df523b3ef",
            "0x0000000000000000000000001733c691f9fce28141476f2d1121ba11a7a3b61b",
            "0x000000000000000000000000c9672e0dd32237db0770fcbd3635693583be4c4f"
          ],
          "data": "0x0000000000000000000000000000000000000000000000000000000000000001",
          "blockHash": "0xea3f5189dc08589f050073f463acab72ec5a9d9c106fc8a27490d7a029ca7229",
          "blockNumber": "0xa288af",
          "transactionHash": "0x4fa0c051d4b15c48546b6aadc559030403330c49983cc9ea75a608727555052d",
          "transactionIndex": "0xd",
          "logIndex": "0xb",
          "removed": false
        },
        {
          "address": "0xAFC880A0879304Fc2797D8b146B25fE3390B5f50",
          "topics": [
            "0xddf252ad1be2c89b69c2b068fc378daa952ba7f163c4a11628f55a4df523b3ef",
            "0x0000000000000000000000000000000000000000000000000000000000000000",
            "0x0000000000000000000000001733c691f9fce28141476f2d1121ba11a7a3b61b",
            "0x0000000000000000000000000000000000000000000000000000000000000006"
          ],
          "data": "0x",
          "blockHash": "0xea3f5189dc08589f050073f463acab72ec5a9d9c106fc8a27490d7a029ca7229",
          "blockNumber": "0xa288af",
          "transactionHash": "0x4fa0c051d4b15c48546b6aadc559030403330c49983cc9ea75a608727555052d",
          "transactionIndex": "0xd",
          "logIndex": "0xc",
          "removed": false
        }
      ],
      "status": "0x1",
      "logsBloom": "0x00000000000000000000000000800000000000000000000000000000000000000000000000000000000000000000000000000000000400000000000000000000000000000000000000000008000000000000000000000000000000000000000008000000020200000000000400000800000000000000000000000010000000400000000400000000000000000000000000000000000000000020000000000000000000000000000000000000000000000004000001000000000000088000000000000002000000000000000000000000000000000000000000000000000020000000000000000000010000000000000000000000000000008008000000000000",
      "type": "0x2",
      "effectiveGasPrice": "0xb2d05e11"
    },
    {
      "transactionHash": "0x3fd72b4f45e6e9451dcec5af3b0aba8616866ebb19191ec8aa06294660a54af6",
      "transactionIndex": "0xe",
      "blockHash": "0xea3f5189dc08589f050073f463acab72ec5a9d9c106fc8a27490d7a029ca7229",
      "blockNumber": "0xa288af",
      "from": "0x1733C691f9FCe28141476f2D1121ba11a7A3b61B",
      "to": "0xc9672e0DD32237Db0770fcbD3635693583bE4c4f",
      "cumulativeGasUsed": "0xd4fd7",
      "gasUsed": "0x1576d",
      "contractAddress": null,
      "logs": [
        {
          "address": "0x090fDc18c1c143f5C4E5573bECaD5261B5Ce46aE",
          "topics": [
            "0xddf252ad1be2c89b69c2b068fc378daa952ba7f163c4a11628f55a4df523b3ef",
            "0x0000000000000000000000001733c691f9fce28141476f2d1121ba11a7a3b61b",
            "0x000000000000000000000000c9672e0dd32237db0770fcbd3635693583be4c4f"
          ],
          "data": "0x0000000000000000000000000000000000000000000000000000000000000001",
          "blockHash": "0xea3f5189dc08589f050073f463acab72ec5a9d9c106fc8a27490d7a029ca7229",
          "blockNumber": "0xa288af",
          "transactionHash": "0x3fd72b4f45e6e9451dcec5af3b0aba8616866ebb19191ec8aa06294660a54af6",
          "transactionIndex": "0xe",
          "logIndex": "0xd",
          "removed": false
        },
        {
          "address": "0xAFC880A0879304Fc2797D8b146B25fE3390B5f50",
          "topics": [
            "0xddf252ad1be2c89b69c2b068fc378daa952ba7f163c4a11628f55a4df523b3ef",
            "0x0000000000000000000000000000000000000000000000000000000000000000",
            "0x0000000000000000000000001733c691f9fce28141476f2d1121ba11a7a3b61b",
            "0x0000000000000000000000000000000000000000000000000000000000000007"
          ],
          "data": "0x",
          "blockHash": "0xea3f5189dc08589f050073f463acab72ec5a9d9c106fc8a27490d7a029ca7229",
          "blockNumber": "0xa288af",
          "transactionHash": "0x3fd72b4f45e6e9451dcec5af3b0aba8616866ebb19191ec8aa06294660a54af6",
          "transactionIndex": "0xe",
          "logIndex": "0xe",
          "removed": false
        }
      ],
      "status": "0x1",
      "logsBloom": "0x00000000000000000000000000800000000000000000000000000000000000000000000000000000000000000000000000001000000000000000000000000000000020000000000000000008000000000000000000000000000000000000000008000000020200000000000400000800000000000000000000000010000000400000000000000000000000000000000000000000000000000020000000000000000000000000000000000000000000000004000001000000000000008000000000000002000000000000000000000000000000000000000000000100000020000000000000000000010000000000000000000000000000008008000000000000",
      "type": "0x2",
      "effectiveGasPrice": "0xb2d05e11"
    },
    {
      "transactionHash": "0xf3fbfbe62071c5ee5d7f0f9ae785e24e145c9f2cd69027c65b251bb43d08911e",
      "transactionIndex": "0xf",
      "blockHash": "0xea3f5189dc08589f050073f463acab72ec5a9d9c106fc8a27490d7a029ca7229",
      "blockNumber": "0xa288af",
      "from": "0x1733C691f9FCe28141476f2D1121ba11a7A3b61B",
      "to": "0xc9672e0DD32237Db0770fcbD3635693583bE4c4f",
      "cumulativeGasUsed": "0xea744",
      "gasUsed": "0x1576d",
      "contractAddress": null,
      "logs": [
        {
          "address": "0x090fDc18c1c143f5C4E5573bECaD5261B5Ce46aE",
          "topics": [
            "0xddf252ad1be2c89b69c2b068fc378daa952ba7f163c4a11628f55a4df523b3ef",
            "0x0000000000000000000000001733c691f9fce28141476f2d1121ba11a7a3b61b",
            "0x000000000000000000000000c9672e0dd32237db0770fcbd3635693583be4c4f"
          ],
          "data": "0x0000000000000000000000000000000000000000000000000000000000000001",
          "blockHash": "0xea3f5189dc08589f050073f463acab72ec5a9d9c106fc8a27490d7a029ca7229",
          "blockNumber": "0xa288af",
          "transactionHash": "0xf3fbfbe62071c5ee5d7f0f9ae785e24e145c9f2cd69027c65b251bb43d08911e",
          "transactionIndex": "0xf",
          "logIndex": "0xf",
          "removed": false
        },
        {
          "address": "0xAFC880A0879304Fc2797D8b146B25fE3390B5f50",
          "topics": [
            "0xddf252ad1be2c89b69c2b068fc378daa952ba7f163c4a11628f55a4df523b3ef",
            "0x0000000000000000000000000000000000000000000000000000000000000000",
            "0x0000000000000000000000001733c691f9fce28141476f2d1121ba11a7a3b61b",
            "0x0000000000000000000000000000000000000000000000000000000000000008"
          ],
          "data": "0x",
          "blockHash": "0xea3f5189dc08589f050073f463acab72ec5a9d9c106fc8a27490d7a029ca7229",
          "blockNumber": "0xa288af",
          "transactionHash": "0xf3fbfbe62071c5ee5d7f0f9ae785e24e145c9f2cd69027c65b251bb43d08911e",
          "transactionIndex": "0xf",
          "logIndex": "0x10",
          "removed": false
        }
      ],
      "status": "0x1",
      "logsBloom": "0x00000000000000000000000000800000000000000000000000000000000000000000000000000000000000000000000000000000000080000000000000000000000000000000000000000008000000000000000000000000000000000000000008000000020200000000000400000800000000000000000000000010000000400080000000000000000000000000000000000000000000000020000000000000000000000000000000000000000000000004000001000000000000008000000040000002000000000000000000000000000000000000000000000000000020000000000000000000010000000000000000000000000000008008000000000000",
      "type": "0x2",
      "effectiveGasPrice": "0xb2d05e11"
    },
    {
      "transactionHash": "0x98a6abd6f3c4e616d892c48c464bd7d368f87493d2a293da60c3013dea3fa1cf",
      "transactionIndex": "0x10",
      "blockHash": "0xea3f5189dc08589f050073f463acab72ec5a9d9c106fc8a27490d7a029ca7229",
      "blockNumber": "0xa288af",
      "from": "0x1733C691f9FCe28141476f2D1121ba11a7A3b61B",
      "to": "0xc9672e0DD32237Db0770fcbD3635693583bE4c4f",
      "cumulativeGasUsed": "0xfd931",
      "gasUsed": "0x131ed",
      "contractAddress": null,
      "logs": [
        {
          "address": "0x090fDc18c1c143f5C4E5573bECaD5261B5Ce46aE",
          "topics": [
            "0xddf252ad1be2c89b69c2b068fc378daa952ba7f163c4a11628f55a4df523b3ef",
            "0x0000000000000000000000001733c691f9fce28141476f2d1121ba11a7a3b61b",
            "0x000000000000000000000000c9672e0dd32237db0770fcbd3635693583be4c4f"
          ],
          "data": "0x0000000000000000000000000000000000000000000000000000000000000001",
          "blockHash": "0xea3f5189dc08589f050073f463acab72ec5a9d9c106fc8a27490d7a029ca7229",
          "blockNumber": "0xa288af",
          "transactionHash": "0x98a6abd6f3c4e616d892c48c464bd7d368f87493d2a293da60c3013dea3fa1cf",
          "transactionIndex": "0x10",
          "logIndex": "0x11",
          "removed": false
        },
        {
          "address": "0xAFC880A0879304Fc2797D8b146B25fE3390B5f50",
          "topics": [
            "0xddf252ad1be2c89b69c2b068fc378daa952ba7f163c4a11628f55a4df523b3ef",
            "0x0000000000000000000000000000000000000000000000000000000000000000",
            "0x0000000000000000000000001733c691f9fce28141476f2d1121ba11a7a3b61b",
            "0x0000000000000000000000000000000000000000000000000000000000000009"
          ],
          "data": "0x",
          "blockHash": "0xea3f5189dc08589f050073f463acab72ec5a9d9c106fc8a27490d7a029ca7229",
          "blockNumber": "0xa288af",
          "transactionHash": "0x98a6abd6f3c4e616d892c48c464bd7d368f87493d2a293da60c3013dea3fa1cf",
          "transactionIndex": "0x10",
          "logIndex": "0x12",
          "removed": false
        }
      ],
      "status": "0x1",
      "logsBloom": "0x00000000000000000000000000800000000000000000000000000000000000000000000000000000000000000000000000000000000000000000000000200000000000000000000000000008000000000000000000000000000000000000000008000000020200000000000400000800000000000000000000000010000000400000000000000000000000000000000000001000000000000020000000000000000000000000000000000000000000000004000001000000000000008000000000000002000000000000000000000000000000000000000000000000000020000000000000000000010000000000000000000000000000008008000000800000",
      "type": "0x2",
      "effectiveGasPrice": "0xb2d05e11"
    }
  ],
  "libraries": [],
  "pending": [],
  "returns": {},
  "timestamp": 1709907509,
  "chain": 5,
  "multi": false,
  "commit": "9458e78"
}